:040000000CEF00F011
:10000800FACF0BF0FBCF0CF0E9CF0DF00EED00F0BE
:100018003AEF04F00600EACF0EF0E1CF0FF0E2CF9E
:1000280010F0D9CF11F0DACF12F0F3CF13F0F4CFEC
:1000380014F0F6CF15F0F7CF16F0F8CF17F0F5CF8C
:1000480018F09EAA7FD00A0E4C607CD00D0EAE1818
:10005800D8B40CD04C50010D360EF324D96E000ED6
:10006800F420DA6EAECFDFFF4C2A6AD04C50010D77
:10007800360EF324D96E000EF420DA6E000EDF6E11
:100088003BD0000E4D6E14D04D50010D360EF324AA
:10009800D96E000EF420DA6E4D50010D590EF3247E
:1000A800E16E000EF420E26EDFCFE7FF4D2A00D0AC
:1000B8004D504C5CD8A028D0E7D726D0000E4E6E05
:1000C80014D04E50010D360EF324D96E000EF420D4
:1000D800DA6E4E50010D4F0EF324E16E000EF4203F
:1000E800E26EDFCFE7FF4E2A00D04E504C5CD8B00E
:1000F800E8D712EC03F008D03650440AD8B4DED75B
:10010800170AD8B4BED700D0010E6CEC03F0010E6C
:10011800056E000EF1EC02F0590E056E000E066E2B
:1001280089EC03F0000E056E000EF1EC02F04F0EA4
:10013800056E000E066E89EC03F0000E4C6E00D0C2
:100148009E9A00D018C0F5FF17C0F8FF16C0F7FF39
:1001580015C0F6FF14C0F4FF13C0F3FF12C0DAFF96
:1001680011C0D9FF10C0E2FF0FC0E1FF0EC0EAFFC7
:100178000DC0E9FF0CC0FBFF0BC0FAFF110023C044
:1001880027F0286A296A2234273601E32880275075
:100198002A6E2A50D8A402D00ED06CD026C027F0E0
:1001A800286A296A2534273601E3288027502F6ECC
:1001B8002F50D8A407D0000E216E000E226E000E1C
:1001C800236E58D02F507B0F2A2623C02FF026509D
:1001D8002F1A800E2F16228E258EFF0E2416FF0E44
:1001E8002516000E2616000E2B6E000E2C6E000E25
:1001F8002D6E070E2E6E00D021A007D024502B267E
:1002080025502C2226502D2200D0D890233222327D
:100218002132D8902436253626362E2EEDD700D01A
:10022800090E2E6E00D021A007D024502B26255071
:100238002C2226502D2200D0D8902332223221326F
:10024800D8902D322C322B322E2EEDD700D02BC049
:1002580019F02CC01AF02DC01BF02AC01CF02FC0BA
:100268001DF0A9EC01F019C021F01AC022F01BC042
:1002780023F000D0120003D01F4A202A00D01FC04C
:10028800D9FF20C0DAFF200EDE18D8B4F5D71FC07A
:10029800D9FF20C0DAFF090EDE18D8B4EDD7000E5A
:1002A800256E000E246E000E236E1FC0D9FF20C0DD
:1002B800DAFF2D0EDE18D8A402D0232A25D01FC0BD
:1002C800D9FF20C0DAFF2B0EDE18D8A420D01CD00E
:1002D8001ED024C019F025C01AF0000E1C6E0A0E9C
:1002E8001B6E02EC04F01FC0D9FF20C0DAFFDF50FC
:1002F800216E226A195021261A502222D00E21245A
:10030800246EFF0E2220256E1F4A202A00D01FC00F
:10031800D9FF20C0DAFFDF5029EC04F0D8B0D9D7D4
:100328002350D8B40DD024C021F025C022F0211EBE
:10033800221E214A222A21C01FF022C020F004D008
:1003480024C01FF025C020F012001C50D8B405D0DE
:1003580019501A101B10D8A40ED0000E196E000EDA
:100368001A6E000E1B6E53D006D01C2AD8901B3272
:100378001A32193200D0000E19141E6E000E1A140B
:100388001F6EFE0E1B14206E1E501F102010D8B4B6
:100398000ED0EBD70CD01C2A010E1926000E1A22FB
:1003A800000E1B22D8901B321A32193200D0000ED0
:1003B80019141E6E000E1A141F6EFF0E1B14206EE9
:1003C8001E501F102010D8B408D0E5D706D01C0640
:1003D800D89019361A361B3600D01ABE04D0020E31
:1003E8001C60F5D700D01CB002D01A9E00D0D8905F
:1003F8001C321C501B121D50D8B402D01B8E00D0CA
:1004080019C019F01AC01AF01BC01BF000D0120056
:10041800000E286E19D02850266E276A040E26264C
:10042800000E2722590E2624D96E000E2720DA6ED8
:100438002850010D630EF324E16E000EF420E26EE5
:10044800DFCFE7FF282A00D02850266E276A040E3F
:100458002626000E2722590E2624D96E000E2720A4
:10046800DA6EDF50D8A4D7D72850010D630EF324D5
:10047800D96E000EF420DA6E000EDF6E630E1F6E6A
:10048800000E206E3FEC01F01FC04AF020C04BF078
:10049800CA844AC026F0030E2616263ABD502618EE
:1004A800CF0B2618BD6E4AC026F04BC027F0D89057
:1004B80027322632D890273226322650BE6E060EB4
:1004C800266E300EE82EFED7262EFCD700D012005E
:1004D80032AE1BD030C080F031C081F032C082F023
:1004E8000001801F811F821F802B000E8123822321
:1004F800000E00018025306E000E00018121316E52
:10050800800E00018221326E00D035AE1BD033C080
:1005180080F034C081F035C082F00001801F811F57
:10052800821F802B000E81238223000E000180256C
:10053800336E000E00018121346E800E000182218D
:10054800356E00D0000E301A000E311A800E321AA5
:10055800000E331A000E341A800E351A3350305CF0
:100568003450315835503258D8B002D0D89002D0D3
:10057800D88000D01200000E0001876F0BD0820EC9
:100588000001866FDE0EE82EFED7862FFCD700010D
:10059800872B00D00001875116EC04F021C030F001
:1005A80022C031F023C032F0000E246EA00E256E5A
:1005B800410E266E83C021F084C022F085C023F04E
:1005C800C3EC00F021C033F022C034F023C035F072
:1005D8006CEC02F0D8A0D3D712000A6E020E0560A8
:1005E8001CD00F0E0A6401D018D00504D8B402D06C
:1005F800800E01D0C00E0AC006F0076A0610086E09
:100608000750096E00D008506CEC03F00D0E066E12
:10061800FC0EE82EFED7062EFCD7120010D0000ED6
:100628008A6E8A801AD0000E8A6E8A8216D0000ED0
:100638008A6E8A8412D0000E8A6E8A860ED0535033
:10064800640AD8B4F8D7080AD8B4F1D71E0AD8B4BF
:10065800EAD7070AD8B4E3D700D01200000E836E99
:10066800000E956E838E270E1D6EF50EE82EFED7B2
:100678001D2EFCD700F0320E4FEC03F0280E4FEC85
:1006880003F00C0E4FEC03F0010E4FEC03F0060ED6
:100698004FEC03F012001C6E0D0E1B6EFC0EE82EC4
:1006A800FED71B2EFCD7000E196E1C50C0EC03F0B1
:1006B8001C38F00B1C6E030E1B6E980EE82EFED72E
:1006C8001B2EFCD7000E196E1C50C0EC03F0120054
:1006D800046E0D0E036EFC0EE82EFED7032EFCD71B
:1006E800000E016E0450ECEC03F00438F00B046EBD
:1006F800030E036E980EE82EFED7032EFCD7000ECD
:10070800016E0450ECEC03F01200000E076E0DD0E1
:100718000750010DF3500524D96EF4500620DA6E07
:10072800DF50D6EC03F0072A00D00750010DF35034
:100738000524D96EF4500620DA6EDF50D8A4E8D725
:1007480012004FEC04F032EC03F045EC04F05DECE1
:1007580004F056EC04F000D00CEC02F0000E00019E
:10076800836F000E0001846F3F0E0001856FBFECA0
:1007780002F0F2D70CEF00F01A6E1A380F0B1A6E4F
:100788001A500F0B1A6E8350F00B836E83501A1099
:10079800836E19B002D0839801D08388839A838CA2
:1007A800839C1200046E0D0E036EFC0EE82EFED71D
:1007B800032EFCD7010E016E0450ECEC03F0043854
:1007C800F00B046E010E016E0450ECEC03F0120005
:1007D800026E02380F0B026E02500F0B026E83502E
:1007E800F00B836E83500210836E01B002D08398A1
:1007F80001D08388839A838C839C120019501B0232
:10080800F3CF1DF0F4CF1EF019501C02F3501E2632
:100818001A501B02F3501E261DC019F01EC01AF0F4
:1008280000D01200246E2450196E1A6A1B6A8E0EAC
:100838001C6E000E1D6EA9EC01F019C021F01AC043
:1008480022F01BC023F000D012001B6E000E1A6E9F
:100858003A0E1B6006D02F0E1B6403D0010E1A6ED1
:1008680000D01AC019F0193000D0120000EE36F08E
:10087800320EEE6AE806FDE1000EF86E0001A5EF03
:1008880003F0000ECC6ECB68BD50F00B0C09BD6EAA
:10089800CA82CA80120094948B94000E936E000E44
:1008A8008A6E1200AB8EAC98AC94B8960C0EAF6EF4
:0E08B80012009D8A9E9AF28EF28CAB8812007E
:020000040020DA
:08000000FFFFFFFFFFFFFFFF00
:020000040030CA
:0E000000FF021F1EFF8181FF0FC00FE00F40A7
:00000001FF
