:040000000CEF00F011
:10000800FACF1AF0FBCF1BF0E9CF1CF041ED09F055
:0400180010EF0BF0EA
:101000000001000A006400E80310275350443D2506
:10101000750D004469723D640D004469723D6C0DAC
:10102000004469723D720D004469723D750D000007
:10103000110E146E000E156E81D0250E1918D8B43D
:1010400009D00DC0D9FF0EC0DAFF19C0DFFF0D4A6D
:101050000E2A74D0000E136E05D07ED06FD0C00E55
:10106000131211D00FC0F6FF10C0F7FF0F4A102A5D
:101070000800F5CF19F01950000AD8B46DD0750AE0
:10108000D8B4EDD75BD014C0D9FF15C0DAFFDECFDE
:1010900016F0DDCF17F0020E1426000E1522010EF9
:1010A000196E050E1918D8B416D001D014D01950E5
:1010B000020D010EF324F66E100EF420F76E0900F7
:1010C000F550165C0900F5501758D8A004D001D08F
:1010D00002D0192AE6D719C018F02AD01850020DEC
:1010E000010EF324F66E100EF420F76E0900F5CF12
:1010F00003F00A00F5CF04F016C001F017C002F0AB
:10110000D3EC09F001C008F002C009F0000E0B6E2C
:101110000A0E0A6E01EC0AF00850300F196E0DC06D
:10112000D9FF0EC0DAFF19C0DFFF0D4A0E2A00D02A
:1011300018061828D8B402D0D1D700D00FC0F6FFB7
:1011400010C0F7FF0F4A102A0800F5CF19F0195008
:10115000D8B402D072D700D00DC0D9FF0EC0DAFFCC
:10116000000EDF6E00D0120081B01AD01A0E2D6E64
:10117000F80EE82EFED72D2EFCD700D000D081A08F
:10118000FED71A0E2D6EF80EE82EFED72D2EFCD7A8
:1011900000D0280E286E100E296E90EC09F070D049
:1011A00081B21AD01A0E2D6EF80EE82EFED72D2E13
:1011B000FCD700D000D081A2FED71A0E2D6EF80EFB
:1011C000E82EFED72D2EFCD700D0210E286E100E53
:1011D000296E90EC09F054D081B41AD01A0E2D6EFD
:1011E000F80EE82EFED72D2EFCD700D000D081A41B
:1011F000FED71A0E2D6EF80EE82EFED72D2EFCD738
:1012000000D0130E286E100E296E90EC09F038D025
:1012100081B61AD01A0E2D6EF80EE82EFED72D2E9E
:10122000FCD700D000D081A6FED71A0E2D6EF80E86
:10123000E82EFED72D2EFCD700D01A0E286E100EE9
:10124000296E90EC09F01CD081B81AD01A0E2D6EC0
:10125000F80EE82EFED72D2EFCD700D000D081A8A6
:10126000FED71A0E2D6EF80EE82EFED72D2EFCD7C7
:1012700000D02E0E286E000E296E90EC09F000D0E2
:1012800012000600EACF1DF0E1CF1EF0E2CF1FF002
:10129000D9CF20F0DACF21F0F3CF22F0F4CF23F032
:1012A000F6CF24F0F7CF25F0F8CF26F0F5CF27F0D2
:1012B0009EA402D0C2829E949EAC15D0000E056EF4
:1012C000000E27EC0AF02E0E0D6E000E0E6E0B0EA9
:1012D0000F6E100E106EC3CF11F0C4CF12F018ECC9
:1012E00008F09E9C00D027C0F5FF26C0F8FF25C05F
:1012F000F7FF24C0F6FF23C0F4FF22C0F3FF21C094
:10130000DAFF20C0D9FF1FC0E2FF1EC0E1FF1DC0F1
:10131000EAFF1CC0E9FF1BC0FBFF1AC0FAFF110067
:10132000000E2C6E21D02C50010D28C02AF029C0AF
:101330002BF0F3502A26F4502B222AC0F6FF2BC0A4
:10134000F7FF000EF86E0F0EF76403D00800F5509B
:1013500005D0F6CFE9FFF7CFEAFFEF50AD6E00D032
:10136000ACA2FED72C2A00D02C50010D28C02AF0A8
:1013700029C02BF0F3502A26F4502B222AC0F6FF66
:101380002BC0F7FF000EF86E0F0EF76403D00800B5
:10139000F55005D0F6CFE9FFF7CFEAFFEF5000098F
:1013A000D8A4C1D71200000E066E000E056E0350C1
:1013B0000410D8B421D0010E076E05D0D8900336A2
:1013C0000436072A00D004BE02D0F8D700D0D89047
:1013D000053606360350015C04500258D8A006D0EA
:1013E0000350015E0450025A058000D0D8900432A8
:1013F0000332072EECD700D005C001F006C002F082
:1014000012000A500B10D8B41DD0010E0C6E05D07E
:10141000D8900A360B360C2A00D00BBE02D0F8D773
:1014200000D00A50085C0B500958D8A005D00A50CB
:10143000085E0B50095A00D0D8900B320A320C2E9D
:10144000F0D700D008C008F009C009F012000A6EF9
:10145000020E05601CD00F0E0A6401D018D00504DE
:10146000D8B402D0800E01D0C00E0AC006F0076AC0
:101470000610086E0750096E00D00850A0EC0AF064
:101480000D0E066EFC0EE82EFED7062EFCD71200BF
:10149000000E296E000E286EF28EF28C9D8C9E9CA2
:1014A000C150F00B0E09C16EC294C296C298C29A86
:1014B000CF0EC116C280C08EC050C70B0809C06EC7
:1014C000C050F80B0609C06EC2821200000E836E77
:1014D000000E956E838E270E2C6EF50EE82EFED72D
:1014E0002C2EFCD700F0320E83EC0AF0280E83EC91
:1014F0000AF00C0E83EC0AF0010E83EC0AF0060EE3
:1015000083EC0AF012002B6E0D0E2A6EFC0EE82EF4
:10151000FED72A2EFCD7000E286E2B50D4EC0AF0F2
:101520002B38F00B2B6E030E2A6E980EE82EFED78A
:101530002A2EFCD7000E286E2B50D4EC0AF0120095
:10154000046E0D0E036EFC0EE82EFED7032EFCD7A4
:10155000000E016E0450EAEC0AF00438F00B046E41
:10156000030E036E980EE82EFED7032EFCD7000E56
:10157000016E0450EAEC0AF01200BD50F00B0209B3
:10158000BD6E94949E949D84CD8ECD86300ECD12EA
:10159000CD94CD82000ECF6E000ECE6EF40EBF6ED7
:1015A000240EBE6ECD801200296E29380F0B296ED5
:1015B00029500F0B296E8350F00B836E8350291036
:1015C000836E28B002D0839801D08388839A838C5D
:1015D000839C1200026E02380F0B026E02500F0B3A
:1015E000026E8350F00B836E83500210836E01B045
:1015F00002D0839801D08388839A838C839C1200C5
:101600001BEC0BF023EC0BF0BDEC0AF048EC0AF0FD
:1016100066EC0AF000D0B4EC08F0FDD70CEF00F057
:1016200000EE2EF00A0EEE6AE806FDE1000EF86EFE
:10163000000100EF0BF0AB8EAC8AAC98AC94B8967E
:0E1640000C0EAF6E12009368000E8A6E120040
:020000040020DA
:08000000FFFFFFFFFFFFFFFF00
:020000040030CA
:0E000000FF021F1EFF8181FF0FC00FE00F40A7
:00000001FF
