:020000040000FA
:0400000007EF00F016
:10000800138297ED00F070EF01F0C7EC00F0F28E6C
:1000180083EC01F07BEC01F0F28C000E936E000E85
:100028008A6E61EC01F0000E046E03681EEC01F0AC
:10003800520E1218D8A423EF00F025EF00F029EF94
:1000480000F0080E8A6E50EF00F04C0E1218D8A47B
:1000580030EF00F032EF00F036EF00F0020E8A6E5B
:1000680050EF00F0550E1218D8A43DEF00F03FEF06
:1000780000F043EF00F0010E8A6E50EF00F0440EDE
:100088001218D8A44AEF00F04CEF00F050EF00F03F
:10009800040E8A6E50EF00F0000E076E000E5FEC43
:1000A80000F00E0E076E000E086EE4EC00F01CEF78
:1000B80000F007EF00F00C6E020E076066EF00F02C
:1000C80068EF00F096EF00F00F0E0C646EEF00F092
:1000D80070EF00F072EF00F096EF00F00704D8B46C
:1000E80078EF00F07AEF00F084EF00F0800E0CC09B
:1000F80008F0096A08100A6E09500B6E8CEF00F0C0
:10010800C00E0CC008F0096A08100A6E09500B6E80
:100118000A5001EC01F00D0E086EFC0EE82EFED719
:10012800082EFCD712000600D9CF01F0DACF02F072
:100138009EAAA1EF00F0A3EF00F0C1EF00F0AE50CF
:10014800D8B4A9EF00F0ABEF00F0B6EF00F00E0E58
:100158000D24D96EDA6A000EDA22AECFDFFF0D2A3F
:10016800C0EF00F00E0E0D24D96EDA6A000EDA2206
:10017800000EDF6E000E0D6E9E9A02C0DAFF01C0FF
:10018800D9FF13921100000E836E000E956E838EB8
:10019800270E076EF50EE82EFED7072EFCD700F0C7
:1001A800320E01EC01F0280E01EC01F00C0E01EC0E
:1001B80001F0010E01EC01F0060E01EC01F0120055
:1001C800000E096EF2EF00F009500724D96E000EF8
:1001D8000820DA6EDF5035EC01F0092A09500724AF
:1001E800D96E000E0820DA6EDF50D8A4FEEF00F0BA
:1001F80000EF01F0E8EF00F01200066E0D0E056E3C
:10020800FC0EE82EFED7052EFCD7000E036E065016
:100218004BEC01F00638F00B066E030E056E980ED7
:10022800E82EFED7052EFCD7000E036E06504BECC9
:1002380001F0120003C005F0030E0516053ABD5083
:100248000518CF0B0518BD6E03C005F004C006F0F5
:100258000634063205320634063205320550BE6EC3
:100268001200066E0D0E056EFC0EE82EFED7052E4A
:10027800FCD7010E036E06504BEC01F00638F00B6C
:10028800066E010E036E06504BEC01F01200046E70
:1002980004380F0B046E04500F0B046E8350F00BE0
:1002A800836E83500410836E03B002D0839801D00C
:1002B8008388839A838C839C1200BD50F00B0C09B1
:1002C800BD6E94947C0ECB6ECA50FC0B0209CA6EAC
:1002D800000ECC6ECA841200126A116A106A0F6A84
:1002E8000E6A0D6A13901392000109EF00F0AB8EAD
:1002F800AC8AAC98AC94B8960C0EAF6E12009D8A7E
:060308009E9AAB88120072
:020000040020DA
:08000000FFFFFFFFFFFFFFFF00
:020000040030CA
:0E000000FF021F1EFF8181FF0FC00FE00F40A7
:00000001FF
