:020000040000FA
:0400000007EF00F016
:100008001D828DED01F0DBEF01F020EE16F010EE11
:100018000BF0060EDBCFE3FFE806FCE2010E936E61
:1000280081A019EF00F01BEF00F045EF00F0520E31
:100038000F6E000E106E81B024EF00F026EF00F076
:100048001FEF00F0000E126E34EF00F00B0E1224BA
:10005800D96EDA6A000EDA22DF500FEC02F0122AAB
:100068000B0E1224D96EDA6A000EDA22DF50D8A4F9
:1000780040EF00F042EF00F02AEF00F0000E0FEC26
:1000880002F081A24AEF00F04CEF00F076EF00F0AA
:1000980081B251EF00F053EF00F04CEF00F04C0E3E
:1000A8000F6E000E106E000E136E65EF00F00B0E53
:1000B8001324D96EDA6A000EDA22DF500FEC02F050
:1000C800132A0B0E1324D96EDA6A000EDA22DF50D7
:1000D800D8A471EF00F073EF00F05BEF00F0000EB2
:1000E8000FEC02F081A47BEF00F07DEF00F0A7EFAA
:1000F80000F081B482EF00F084EF00F07DEF00F0B3
:10010800550E0F6E000E106E000E146E96EF00F076
:100118000B0E1424D96EDA6A000EDA22DF500FECC7
:1001280002F0142A0B0E1424D96EDA6A000EDA22B1
:10013800DF50D8A4A2EF00F0A4EF00F08CEF00F09D
:10014800000E0FEC02F081A6ACEF00F0AEEF00F06D
:10015800D8EF00F081B6B3EF00F0B5EF00F0AEEFE6
:1001680000F0440E0F6E000E106E000E156EC7EFF5
:1001780000F00B0E1524D96EDA6A000EDA22DF5071
:100188000FEC02F0152A0B0E1524D96EDA6A000E50
:10019800DA22DF50D8A4D3EF00F0D5EF00F0BDEF9E
:1001A80000F0000E0FEC02F01200000E066E04BE06
:1001B800E2EF00F0E0EF00F0E8EF00F0036C041E5F
:1001C800D8B0042A010E066E02BEEFEF00F0EDEF84
:1001D80000F0F5EF00F0016C021ED8B0022A010E03
:1001E800061A000E086E000E076E03500410D8B4ED
:1001F80000EF01F002EF01F02AEF01F0010E056EA9
:100208000AEF01F0D89003360436052A04AE0FEF42
:1002180001F011EF01F006EF01F0D890073608362B
:100228000350015C04500258D8A01DEF01F01FEFE5
:1002380001F024EF01F00350015E0450025A0780D8
:10024800D89004320332052E11EF01F00650D8B4CD
:1002580030EF01F032EF01F036EF01F0076C081EC5
:10026800D8B0082A07C001F008C002F01200026ED8
:10027800000E046E0150D8B444EF01F046EF01F0CF
:1002880067EF01F0010E036E4DEF01F0D8900136D3
:10029800032A01AE52EF01F054EF01F04AEF01F0EA
:1002A800D89004360150025CD8A05DEF01F05FEFF2
:1002B80001F062EF01F00150025E0480D890013233
:1002C800032E54EF01F004501200640E096E09C0A9
:1002D80001F0C3503BEC01F0300F1AEC02F009C0FA
:1002E80001F0C350AAEC01F0C36E09C001F0026A24
:1002F800000E046E0A0E036ED9EC00F00150096E70
:100308000950D8A48AEF01F08CEF01F06BEF01F0EF
:10031800120006009EA493EF01F095EF01F097EF0D
:1003280001F0C2829E949EAC9CEF01F09EEF01F01A
:10033800A8EF01F0C2B2A3EF01F0A5EF01F09EEF24
:1003480001F069EC01F09E9C1D921100026E080EEE
:10035800036E000E046ED89002340434046ED890F4
:1003680002360150045CD8A0BCEF01F0BEEF01F0EA
:10037800C0EF01F00150045E032EAFEF01F004500E
:100388001200C30EC216C150F00B0E09C16EC28016
:10039800CF0EC116C08EC050C70B0809C06EC05022
:1003A800F80B0609C06E9D8CC2829E9C12005A0EE4
:1003B800F66E040EF76E000EF86E00EE16F010EEF4
:1003C80007F00900F5CFEEFFE550E150FAE11D9086
:1003D8001D92000101EF02F0BD50F00B0A09BD6E3D
:1003E800CD8E300ECD12CD86CD929D849E94000E7A
:1003F800CF6E000ECE6ECD801200F28EF28CF0EC35
:1004080001F0C5EC01F025EC02F009EC00F009EF71
:1004180002F007EF00F00A6E0AC0ADFFACA217EFBA
:1004280002F019EF02F012EF02F01200016E01C0A3
:10043800ADFFACA222EF02F024EF02F01DEF02F0B4
:100448001200AB8EAC8AAC98AC94B8960C0EAF6E1A
:0904580012004469723D0000002D
:020000040020DA
:08000000FFFFFFFFFFFFFFFF00
:020000040030CA
:0E000000FF021F1EFF8181FF0FC00FE00F40A7
:00000001FF
